{
  "_format": "hh-sol-artifact-1",
  "contractName": "FairTraceTransport",
  "sourceName": "contracts/FairTraceTransport.sol",
  "abi": [
    {
      "inputs": [],
      "stateMutability": "nonpayable",
      "type": "constructor"
    },
    {
      "anonymous": false,
      "inputs": [
        {
          "indexed": false,
          "internalType": "string",
          "name": "pid",
          "type": "string"
        },
        {
          "indexed": false,
          "internalType": "address",
          "name": "transporter",
          "type": "address"
        },
        {
          "indexed": false,
          "internalType": "uint256",
          "name": "timestamp",
          "type": "uint256"
        }
      ],
      "name": "TransportAccepted",
      "type": "event"
    },
    {
      "anonymous": false,
      "inputs": [
        {
          "indexed": false,
          "internalType": "string",
          "name": "pid",
          "type": "string"
        },
        {
          "indexed": false,
          "internalType": "address",
          "name": "transporter",
          "type": "address"
        },
        {
          "indexed": false,
          "internalType": "uint256",
          "name": "timestamp",
          "type": "uint256"
        }
      ],
      "name": "TransportDelivered",
      "type": "event"
    },
    {
      "inputs": [
        {
          "internalType": "string",
          "name": "pid",
          "type": "string"
        }
      ],
      "name": "acceptTransport",
      "outputs": [],
      "stateMutability": "nonpayable",
      "type": "function"
    },
    {
      "inputs": [],
      "name": "admin",
      "outputs": [
        {
          "internalType": "address",
          "name": "",
          "type": "address"
        }
      ],
      "stateMutability": "view",
      "type": "function"
    },
    {
      "inputs": [
        {
          "internalType": "string",
          "name": "pid",
          "type": "string"
        }
      ],
      "name": "completeTransport",
      "outputs": [],
      "stateMutability": "nonpayable",
      "type": "function"
    },
    {
      "inputs": [
        {
          "internalType": "string",
          "name": "pid",
          "type": "string"
        }
      ],
      "name": "getMovement",
      "outputs": [
        {
          "components": [
            {
              "internalType": "string",
              "name": "pid",
              "type": "string"
            },
            {
              "internalType": "address",
              "name": "transporter",
              "type": "address"
            },
            {
              "internalType": "uint256",
              "name": "acceptedAt",
              "type": "uint256"
            },
            {
              "internalType": "uint256",
              "name": "deliveredAt",
              "type": "uint256"
            },
            {
              "internalType": "bool",
              "name": "accepted",
              "type": "bool"
            },
            {
              "internalType": "bool",
              "name": "delivered",
              "type": "bool"
            }
          ],
          "internalType": "struct FairTraceTransport.Movement",
          "name": "",
          "type": "tuple"
        }
      ],
      "stateMutability": "view",
      "type": "function"
    },
    {
      "inputs": [
        {
          "internalType": "string",
          "name": "",
          "type": "string"
        }
      ],
      "name": "movements",
      "outputs": [
        {
          "internalType": "string",
          "name": "pid",
          "type": "string"
        },
        {
          "internalType": "address",
          "name": "transporter",
          "type": "address"
        },
        {
          "internalType": "uint256",
          "name": "acceptedAt",
          "type": "uint256"
        },
        {
          "internalType": "uint256",
          "name": "deliveredAt",
          "type": "uint256"
        },
        {
          "internalType": "bool",
          "name": "accepted",
          "type": "bool"
        },
        {
          "internalType": "bool",
          "name": "delivered",
          "type": "bool"
        }
      ],
      "stateMutability": "view",
      "type": "function"
    }
  ],
  "bytecode": "0x6080604052348015600f57600080fd5b50600080546001600160a01b0319163317905561096a806100316000396000f3fe608060405234801561001057600080fd5b50600436106100575760003560e01c80631cdfa16a1461005c5780636c925e6c14610071578063d2c6699f1461009a578063f087dd4f146100bf578063f851a440146100d2575b600080fd5b61006f61006a36600461055a565b6100fd565b005b61008461007f36600461055a565b610268565b6040516100919190610614565b60405180910390f35b6100ad6100a8366004610690565b6103a3565b60405161009196959493929190610749565b61006f6100cd36600461055a565b61047b565b6000546100e5906001600160a01b031681565b6040516001600160a01b039091168152602001610091565b600060018383604051610111929190610792565b908152604051908190036020019020600481015490915060ff1661016f5760405162461bcd60e51b815260206004820152601060248201526f139bdd081858d8d95c1d1959081e595d60821b60448201526064015b60405180910390fd5b6004810154610100900460ff16156101bd5760405162461bcd60e51b8152602060048201526011602482015270105b1c9958591e4819195b1a5d995c9959607a1b6044820152606401610166565b60018101546001600160a01b0316331461020d5760405162461bcd60e51b81526020600482015260116024820152704e6f7420796f75722064656c697665727960781b6044820152606401610166565b60048101805461ff00191661010017905542600382018190556040517f8ba55b7582dc052dc81d507286c6cf83e91b474036a53e99458ecc2ed9c342289161025b91869186913391906107a2565b60405180910390a1505050565b6040805160c08101825260608082526000602083018190528284018190529082018190526080820181905260a082015290516001906102aa9085908590610792565b90815260200160405180910390206040518060c00160405290816000820180546102d3906107eb565b80601f01602080910402602001604051908101604052809291908181526020018280546102ff906107eb565b801561034c5780601f106103215761010080835404028352916020019161034c565b820191906000526020600020905b81548152906001019060200180831161032f57829003601f168201915b505050918352505060018201546001600160a01b03166020820152600282015460408201526003820154606082015260049091015460ff8082161515608084015261010090910416151560a0909101529392505050565b80516020818301810180516001825292820191909301209152805481906103c9906107eb565b80601f01602080910402602001604051908101604052809291908181526020018280546103f5906107eb565b80156104425780601f1061041757610100808354040283529160200191610442565b820191906000526020600020905b81548152906001019060200180831161042557829003601f168201915b5050505060018301546002840154600385015460049095015493946001600160a01b039092169390925060ff8082169161010090041686565b60006001838360405161048f929190610792565b908152604051908190036020019020600481015490915060ff16156104e95760405162461bcd60e51b815260206004820152601060248201526f105b1c9958591e481858d8d95c1d195960821b6044820152606401610166565b806104f5838583610874565b50600180820180546001600160a01b0319163390811790915560048301805460ff191690921790915542600283018190556040517f13a86a760334232522dcf7638d46934ac316b790fcc56a020b404df8cf89536a9261025b928792879291906107a2565b6000806020838503121561056d57600080fd5b823567ffffffffffffffff81111561058457600080fd5b8301601f8101851361059557600080fd5b803567ffffffffffffffff8111156105ac57600080fd5b8560208284010111156105be57600080fd5b6020919091019590945092505050565b6000815180845260005b818110156105f4576020818501810151868301820152016105d8565b506000602082860101526020601f19601f83011685010191505092915050565b602081526000825160c0602084015261063060e08401826105ce565b905060018060a01b03602085015116604084015260408401516060840152606084015160808401526080840151151560a084015260a0840151151560c08401528091505092915050565b634e487b7160e01b600052604160045260246000fd5b6000602082840312156106a257600080fd5b813567ffffffffffffffff8111156106b957600080fd5b8201601f810184136106ca57600080fd5b803567ffffffffffffffff8111156106e4576106e461067a565b604051601f8201601f19908116603f0116810167ffffffffffffffff811182821017156107135761071361067a565b60405281815282820160200186101561072b57600080fd5b81602084016020830137600091810160200191909152949350505050565b60c08152600061075c60c08301896105ce565b6001600160a01b03979097166020830152506040810194909452606084019290925215156080830152151560a090910152919050565b8183823760009101908152919050565b6060815283606082015283856080830137600060808583018101919091526001600160a01b039390931660208201526040810191909152601f909201601f191690910101919050565b600181811c908216806107ff57607f821691505b60208210810361081f57634e487b7160e01b600052602260045260246000fd5b50919050565b601f82111561086f57806000526020600020601f840160051c8101602085101561084c5750805b601f840160051c820191505b8181101561086c5760008155600101610858565b50505b505050565b67ffffffffffffffff83111561088c5761088c61067a565b6108a08361089a83546107eb565b83610825565b6000601f8411600181146108d457600085156108bc5750838201355b600019600387901b1c1916600186901b17835561086c565b600083815260209020601f19861690835b8281101561090557868501358255602094850194600190920191016108e5565b50868210156109225760001960f88860031b161c19848701351681555b505060018560011b018355505050505056fea264697066735822122004e0f4745d81a0698903346277999d9e937b12c1a9639ecf36021dda024a52b264736f6c634300081c0033",
  "linkReferences": {},
  "deployedLinkReferences": {}
}