{
  "_format": "hh-sol-artifact-1",
  "contractName": "FarmerRegistry",
  "sourceName": "contracts/FairTraceRegistry.sol",
  "abi": [
    {
      "anonymous": false,
      "inputs": [
        {
          "indexed": true,
          "internalType": "uint256",
          "name": "farmerId",
          "type": "uint256"
        },
        {
          "indexed": false,
          "internalType": "string",
          "name": "newLocation",
          "type": "string"
        }
      ],
      "name": "FarmerLocationUpdated",
      "type": "event"
    },
    {
      "anonymous": false,
      "inputs": [
        {
          "indexed": true,
          "internalType": "uint256",
          "name": "farmerId",
          "type": "uint256"
        },
        {
          "indexed": false,
          "internalType": "string",
          "name": "fullName",
          "type": "string"
        },
        {
          "indexed": false,
          "internalType": "string",
          "name": "farmLocation",
          "type": "string"
        },
        {
          "indexed": true,
          "internalType": "address",
          "name": "wallet",
          "type": "address"
        }
      ],
      "name": "FarmerRegistered",
      "type": "event"
    },
    {
      "inputs": [],
      "name": "getAllFarmers",
      "outputs": [
        {
          "components": [
            {
              "internalType": "uint256",
              "name": "farmerId",
              "type": "uint256"
            },
            {
              "internalType": "string",
              "name": "fullName",
              "type": "string"
            },
            {
              "internalType": "string",
              "name": "nationalIdHash",
              "type": "string"
            },
            {
              "internalType": "string",
              "name": "farmLocation",
              "type": "string"
            },
            {
              "internalType": "address",
              "name": "wallet",
              "type": "address"
            }
          ],
          "internalType": "struct FarmerRegistry.Farmer[]",
          "name": "",
          "type": "tuple[]"
        }
      ],
      "stateMutability": "view",
      "type": "function"
    },
    {
      "inputs": [
        {
          "internalType": "uint256",
          "name": "_farmerId",
          "type": "uint256"
        }
      ],
      "name": "getFarmer",
      "outputs": [
        {
          "components": [
            {
              "internalType": "uint256",
              "name": "farmerId",
              "type": "uint256"
            },
            {
              "internalType": "string",
              "name": "fullName",
              "type": "string"
            },
            {
              "internalType": "string",
              "name": "nationalIdHash",
              "type": "string"
            },
            {
              "internalType": "string",
              "name": "farmLocation",
              "type": "string"
            },
            {
              "internalType": "address",
              "name": "wallet",
              "type": "address"
            }
          ],
          "internalType": "struct FarmerRegistry.Farmer",
          "name": "",
          "type": "tuple"
        }
      ],
      "stateMutability": "view",
      "type": "function"
    },
    {
      "inputs": [
        {
          "internalType": "string",
          "name": "_fullName",
          "type": "string"
        },
        {
          "internalType": "string",
          "name": "_nationalIdHash",
          "type": "string"
        },
        {
          "internalType": "string",
          "name": "_farmLocation",
          "type": "string"
        }
      ],
      "name": "registerFarmer",
      "outputs": [
        {
          "internalType": "uint256",
          "name": "",
          "type": "uint256"
        }
      ],
      "stateMutability": "nonpayable",
      "type": "function"
    },
    {
      "inputs": [
        {
          "internalType": "uint256",
          "name": "_farmerId",
          "type": "uint256"
        },
        {
          "internalType": "string",
          "name": "_newLocation",
          "type": "string"
        }
      ],
      "name": "updateFarmLocation",
      "outputs": [],
      "stateMutability": "nonpayable",
      "type": "function"
    }
  ],
  "bytecode": "0x60806040526001600055348015601457600080fd5b50610cc2806100246000396000f3fe608060405234801561001057600080fd5b506004361061004c5760003560e01c806326a288751461005157806329a566d214610066578063536954e41461008c578063ad0caa76146100a1575b600080fd5b61006461005f366004610881565b6100c1565b005b6100796100743660046108c8565b6101c2565b6040519081526020015b60405180910390f35b6100946102c0565b6040516100839190610a13565b6100b46100af366004610a78565b610555565b6040516100839190610a91565b6000821180156100d2575060005482105b61011b5760405162461bcd60e51b815260206004820152601560248201527411985c9b595c88191bd95cc81b9bdd08195e1a5cdd605a1b60448201526064015b60405180910390fd5b600082815260016020526040902060048101546001600160a01b031633146101765760405162461bcd60e51b815260206004820152600e60248201526d139bdd08185d5d1a1bdc9a5e995960921b6044820152606401610112565b600381016101848382610b2e565b50827f7b8028a71a63d22cf82fc6bab81a39e646a6510064745f1f5c8e253f0d7a63be836040516101b59190610bed565b60405180910390a2505050565b600080546040805160a081018252828152602080820188815282840188905260608301879052336080840152848652600191829052928520825181559251919291908201906102119082610b2e565b50604082015160028201906102269082610b2e565b506060820151600382019061023b9082610b2e565b5060809190910151600490910180546001600160a01b0319166001600160a01b03909216919091179055604051339082907f9822159e3dc24e507907a66b4172fc2e18eeb689bfd71c3877b119d7b5f4e2b39061029b9089908890610c00565b60405180910390a36000805490806102b283610c44565b909155509095945050505050565b6060600060016000546102d39190610c5d565b67ffffffffffffffff8111156102eb576102eb6107dc565b60405190808252806020026020018201604052801561032457816020015b6103116107a4565b8152602001906001900390816103095790505b50905060015b60005481101561054f57600081815260016020818152604092839020835160a081019094528054845291820180549184019161036590610aab565b80601f016020809104026020016040519081016040528092919081815260200182805461039190610aab565b80156103de5780601f106103b3576101008083540402835291602001916103de565b820191906000526020600020905b8154815290600101906020018083116103c157829003601f168201915b505050505081526020016002820180546103f790610aab565b80601f016020809104026020016040519081016040528092919081815260200182805461042390610aab565b80156104705780601f1061044557610100808354040283529160200191610470565b820191906000526020600020905b81548152906001019060200180831161045357829003601f168201915b5050505050815260200160038201805461048990610aab565b80601f01602080910402602001604051908101604052809291908181526020018280546104b590610aab565b80156105025780601f106104d757610100808354040283529160200191610502565b820191906000526020600020905b8154815290600101906020018083116104e557829003601f168201915b5050509183525050600491909101546001600160a01b03166020909101528261052c600184610c5d565b8151811061053c5761053c610c76565b602090810291909101015260010161032a565b50919050565b61055d6107a4565b60008211801561056e575060005482105b6105b25760405162461bcd60e51b815260206004820152601560248201527411985c9b595c88191bd95cc81b9bdd08195e1a5cdd605a1b6044820152606401610112565b600082815260016020818152604092839020835160a08101909452805484529182018054918401916105e390610aab565b80601f016020809104026020016040519081016040528092919081815260200182805461060f90610aab565b801561065c5780601f106106315761010080835404028352916020019161065c565b820191906000526020600020905b81548152906001019060200180831161063f57829003601f168201915b5050505050815260200160028201805461067590610aab565b80601f01602080910402602001604051908101604052809291908181526020018280546106a190610aab565b80156106ee5780601f106106c3576101008083540402835291602001916106ee565b820191906000526020600020905b8154815290600101906020018083116106d157829003601f168201915b5050505050815260200160038201805461070790610aab565b80601f016020809104026020016040519081016040528092919081815260200182805461073390610aab565b80156107805780601f1061075557610100808354040283529160200191610780565b820191906000526020600020905b81548152906001019060200180831161076357829003601f168201915b5050509183525050600491909101546001600160a01b031660209091015292915050565b6040518060a001604052806000815260200160608152602001606081526020016060815260200160006001600160a01b031681525090565b634e487b7160e01b600052604160045260246000fd5b600082601f83011261080357600080fd5b813567ffffffffffffffff81111561081d5761081d6107dc565b604051601f8201601f19908116603f0116810167ffffffffffffffff8111828210171561084c5761084c6107dc565b60405281815283820160200185101561086457600080fd5b816020850160208301376000918101602001919091529392505050565b6000806040838503121561089457600080fd5b82359150602083013567ffffffffffffffff8111156108b257600080fd5b6108be858286016107f2565b9150509250929050565b6000806000606084860312156108dd57600080fd5b833567ffffffffffffffff8111156108f457600080fd5b610900868287016107f2565b935050602084013567ffffffffffffffff81111561091d57600080fd5b610929868287016107f2565b925050604084013567ffffffffffffffff81111561094657600080fd5b610952868287016107f2565b9150509250925092565b6000815180845260005b8181101561098257602081850181015186830182015201610966565b506000602082860101526020601f19601f83011685010191505092915050565b805182526000602082015160a060208501526109c160a085018261095c565b9050604083015184820360408601526109da828261095c565b915050606083015184820360608601526109f4828261095c565b6080948501516001600160a01b03169590940194909452509092915050565b6000602082016020835280845180835260408501915060408160051b86010192506020860160005b82811015610a6c57603f19878603018452610a578583516109a2565b94506020938401939190910190600101610a3b565b50929695505050505050565b600060208284031215610a8a57600080fd5b5035919050565b602081526000610aa460208301846109a2565b9392505050565b600181811c90821680610abf57607f821691505b60208210810361054f57634e487b7160e01b600052602260045260246000fd5b601f821115610b2957806000526020600020601f840160051c81016020851015610b065750805b601f840160051c820191505b81811015610b265760008155600101610b12565b50505b505050565b815167ffffffffffffffff811115610b4857610b486107dc565b610b5c81610b568454610aab565b84610adf565b6020601f821160018114610b905760008315610b785750848201515b600019600385901b1c1916600184901b178455610b26565b600084815260208120601f198516915b82811015610bc05787850151825560209485019460019092019101610ba0565b5084821015610bde5786840151600019600387901b60f8161c191681555b50505050600190811b01905550565b602081526000610aa4602083018461095c565b604081526000610c13604083018561095c565b8281036020840152610c25818561095c565b95945050505050565b634e487b7160e01b600052601160045260246000fd5b600060018201610c5657610c56610c2e565b5060010190565b81810381811115610c7057610c70610c2e565b92915050565b634e487b7160e01b600052603260045260246000fdfea2646970667358221220da869c1c95899e5589efa05f43171ba8e8c54dff0e62975402c1beeddc885a4964736f6c634300081c0033",
  "linkReferences": {},
  "deployedLinkReferences": {}
}