{
  "_format": "hh-sol-artifact-1",
  "contractName": "ProductRegistry",
  "sourceName": "contracts/ProductRegistry.sol",
  "abi": [
    {
      "inputs": [],
      "stateMutability": "nonpayable",
      "type": "constructor"
    },
    {
      "anonymous": false,
      "inputs": [
        {
          "indexed": false,
          "internalType": "string",
          "name": "pid",
          "type": "string"
        },
        {
          "indexed": false,
          "internalType": "string",
          "name": "newLocation",
          "type": "string"
        },
        {
          "indexed": false,
          "internalType": "uint256",
          "name": "timestamp",
          "type": "uint256"
        }
      ],
      "name": "ProductLocationUpdated",
      "type": "event"
    },
    {
      "anonymous": false,
      "inputs": [
        {
          "indexed": false,
          "internalType": "string",
          "name": "pid",
          "type": "string"
        },
        {
          "indexed": false,
          "internalType": "string",
          "name": "title",
          "type": "string"
        },
        {
          "indexed": false,
          "internalType": "string",
          "name": "farmerEmail",
          "type": "string"
        },
        {
          "indexed": false,
          "internalType": "uint256",
          "name": "timestamp",
          "type": "uint256"
        },
        {
          "indexed": false,
          "internalType": "string",
          "name": "metadataURI",
          "type": "string"
        }
      ],
      "name": "ProductRegistered",
      "type": "event"
    },
    {
      "inputs": [],
      "name": "getAllProducts",
      "outputs": [
        {
          "components": [
            {
              "internalType": "string",
              "name": "pid",
              "type": "string"
            },
            {
              "internalType": "string",
              "name": "title",
              "type": "string"
            },
            {
              "internalType": "string",
              "name": "farmerEmail",
              "type": "string"
            },
            {
              "internalType": "uint256",
              "name": "timestamp",
              "type": "uint256"
            },
            {
              "internalType": "string",
              "name": "metadataURI",
              "type": "string"
            },
            {
              "internalType": "string",
              "name": "location",
              "type": "string"
            }
          ],
          "internalType": "struct ProductRegistry.ProductRecord[]",
          "name": "",
          "type": "tuple[]"
        }
      ],
      "stateMutability": "view",
      "type": "function"
    },
    {
      "inputs": [
        {
          "internalType": "string",
          "name": "pid",
          "type": "string"
        }
      ],
      "name": "getProduct",
      "outputs": [
        {
          "components": [
            {
              "internalType": "string",
              "name": "pid",
              "type": "string"
            },
            {
              "internalType": "string",
              "name": "title",
              "type": "string"
            },
            {
              "internalType": "string",
              "name": "farmerEmail",
              "type": "string"
            },
            {
              "internalType": "uint256",
              "name": "timestamp",
              "type": "uint256"
            },
            {
              "internalType": "string",
              "name": "metadataURI",
              "type": "string"
            },
            {
              "internalType": "string",
              "name": "location",
              "type": "string"
            }
          ],
          "internalType": "struct ProductRegistry.ProductRecord",
          "name": "",
          "type": "tuple"
        }
      ],
      "stateMutability": "view",
      "type": "function"
    },
    {
      "inputs": [],
      "name": "owner",
      "outputs": [
        {
          "internalType": "address",
          "name": "",
          "type": "address"
        }
      ],
      "stateMutability": "view",
      "type": "function"
    },
    {
      "inputs": [
        {
          "internalType": "string",
          "name": "pid",
          "type": "string"
        },
        {
          "internalType": "string",
          "name": "title",
          "type": "string"
        },
        {
          "internalType": "string",
          "name": "farmerEmail",
          "type": "string"
        },
        {
          "internalType": "string",
          "name": "metadataURI",
          "type": "string"
        }
      ],
      "name": "registerProduct",
      "outputs": [],
      "stateMutability": "nonpayable",
      "type": "function"
    },
    {
      "inputs": [
        {
          "internalType": "string",
          "name": "pid",
          "type": "string"
        },
        {
          "internalType": "string",
          "name": "newLocation",
          "type": "string"
        }
      ],
      "name": "updateProductLocation",
      "outputs": [],
      "stateMutability": "nonpayable",
      "type": "function"
    }
  ],
  "bytecode": "0x6080604052348015600f57600080fd5b50600080546001600160a01b031916331790556113ec806100316000396000f3fe608060405234801561001057600080fd5b50600436106100575760003560e01c806302ee3a521461005c57806368111cce1461007a5780637ae198461461009a5780638799d6fc146100af5780638da5cb5b146100c2575b600080fd5b6100646100ed565b6040516100719190610de7565b60405180910390f35b61008d610088366004610e95565b6104dc565b6040516100719190610ed7565b6100ad6100a8366004610ef1565b6108a2565b005b6100ad6100bd366004610f62565b6109dd565b6000546100d5906001600160a01b031681565b6040516001600160a01b039091168152602001610071565b60025460609060009067ffffffffffffffff81111561010e5761010e611039565b60405190808252806020026020018201604052801561017857816020015b6101656040518060c001604052806060815260200160608152602001606081526020016000815260200160608152602001606081525090565b81526020019060019003908161012c5790505b50905060005b6002548110156104d65760016002828154811061019d5761019d61104f565b906000526020600020016040516101b49190611099565b90815260200160405180910390206040518060c00160405290816000820180546101dd90611065565b80601f016020809104026020016040519081016040528092919081815260200182805461020990611065565b80156102565780601f1061022b57610100808354040283529160200191610256565b820191906000526020600020905b81548152906001019060200180831161023957829003601f168201915b5050505050815260200160018201805461026f90611065565b80601f016020809104026020016040519081016040528092919081815260200182805461029b90611065565b80156102e85780601f106102bd576101008083540402835291602001916102e8565b820191906000526020600020905b8154815290600101906020018083116102cb57829003601f168201915b5050505050815260200160028201805461030190611065565b80601f016020809104026020016040519081016040528092919081815260200182805461032d90611065565b801561037a5780601f1061034f5761010080835404028352916020019161037a565b820191906000526020600020905b81548152906001019060200180831161035d57829003601f168201915b505050505081526020016003820154815260200160048201805461039d90611065565b80601f01602080910402602001604051908101604052809291908181526020018280546103c990611065565b80156104165780601f106103eb57610100808354040283529160200191610416565b820191906000526020600020905b8154815290600101906020018083116103f957829003601f168201915b5050505050815260200160058201805461042f90611065565b80601f016020809104026020016040519081016040528092919081815260200182805461045b90611065565b80156104a85780601f1061047d576101008083540402835291602001916104a8565b820191906000526020600020905b81548152906001019060200180831161048b57829003601f168201915b5050505050815250508282815181106104c3576104c361104f565b602090810291909101015260010161017e565b50919050565b6105156040518060c001604052806060815260200160608152602001606081526020016000815260200160608152602001606081525090565b60006001848460405161052992919061110e565b908152604051908190036020019020805461054390611065565b90501161058b5760405162461bcd60e51b8152602060048201526011602482015270141c9bd91d58dd081b9bdd08199bdd5b99607a1b60448201526064015b60405180910390fd5b6001838360405161059d92919061110e565b90815260200160405180910390206040518060c00160405290816000820180546105c690611065565b80601f01602080910402602001604051908101604052809291908181526020018280546105f290611065565b801561063f5780601f106106145761010080835404028352916020019161063f565b820191906000526020600020905b81548152906001019060200180831161062257829003601f168201915b5050505050815260200160018201805461065890611065565b80601f016020809104026020016040519081016040528092919081815260200182805461068490611065565b80156106d15780601f106106a6576101008083540402835291602001916106d1565b820191906000526020600020905b8154815290600101906020018083116106b457829003601f168201915b505050505081526020016002820180546106ea90611065565b80601f016020809104026020016040519081016040528092919081815260200182805461071690611065565b80156107635780601f1061073857610100808354040283529160200191610763565b820191906000526020600020905b81548152906001019060200180831161074657829003601f168201915b505050505081526020016003820154815260200160048201805461078690611065565b80601f01602080910402602001604051908101604052809291908181526020018280546107b290611065565b80156107ff5780601f106107d4576101008083540402835291602001916107ff565b820191906000526020600020905b8154815290600101906020018083116107e257829003601f168201915b5050505050815260200160058201805461081890611065565b80601f016020809104026020016040519081016040528092919081815260200182805461084490611065565b80156108915780601f1061086657610100808354040283529160200191610891565b820191906000526020600020905b81548152906001019060200180831161087457829003601f168201915b505050505081525050905092915050565b6000600185856040516108b692919061110e565b90815260405190819003602001902080546108d090611065565b9050116109135760405162461bcd60e51b8152602060048201526011602482015270141c9bd91d58dd081b9bdd08199bdd5b99607a1b6044820152606401610582565b6000546001600160a01b031633146109655760405162461bcd60e51b81526020600482015260156024820152744f6e6c79206f776e65722063616e2075706461746560581b6044820152606401610582565b81816001868660405161097992919061110e565b9081526020016040518091039020600501918261099792919061116d565b507f20bd43fbeb43771b498a26150bab99ea92d466f7dbf76aaad5068620d997105d84848484426040516109cf959493929190611256565b60405180910390a150505050565b6000546001600160a01b03163314610a375760405162461bcd60e51b815260206004820152601760248201527f4f6e6c79206f776e65722063616e2072656769737465720000000000000000006044820152606401610582565b86610a735760405162461bcd60e51b815260206004820152600c60248201526b141251081c995c5d5a5c995960a21b6044820152606401610582565b60018888604051610a8592919061110e565b9081526040519081900360200190208054610a9f90611065565b159050610ae35760405162461bcd60e51b815260206004820152601260248201527150494420616c72656164792065786973747360701b6044820152606401610582565b6040518060c0016040528089898080601f016020809104026020016040519081016040528093929190818152602001838380828437600092019190915250505090825250604080516020601f8a0181900481028201810190925288815291810191908990899081908401838280828437600092019190915250505090825250604080516020601f8801819004810282018101909252868152918101919087908790819084018382808284376000920191909152505050908252504260208083019190915260408051601f8601839004830281018301825285815292019190859085908190840183828082843760009201829052509385525050604080516020818101835293815292909301919091525051600190610c04908b908b9061110e565b90815260405190819003602001902081518190610c219082611290565b5060208201516001820190610c369082611290565b5060408201516002820190610c4b9082611290565b506060820151600382015560808201516004820190610c6a9082611290565b5060a08201516005820190610c7f9082611290565b5050600280546001810182556000919091527f405787fa12a823e0f2b7631cc41b3ba8828b3321ca811111fa75cd3aa3bb5ace019050610cc0888a8361116d565b507fbcfdfe60bc17980bd0d8982a4429904f7339d1da2dab63aefd242502ea2820a1888888888888428989604051610d009998979695949392919061134f565b60405180910390a15050505050505050565b6000815180845260005b81811015610d3857602081850181015186830182015201610d1c565b506000602082860101526020601f19601f83011685010191505092915050565b6000815160c08452610d6d60c0850182610d12565b905060208301518482036020860152610d868282610d12565b91505060408301518482036040860152610da08282610d12565b9150506060830151606085015260808301518482036080860152610dc48282610d12565b91505060a083015184820360a0860152610dde8282610d12565b95945050505050565b6000602082016020835280845180835260408501915060408160051b86010192506020860160005b82811015610e4057603f19878603018452610e2b858351610d58565b94506020938401939190910190600101610e0f565b50929695505050505050565b60008083601f840112610e5e57600080fd5b50813567ffffffffffffffff811115610e7657600080fd5b602083019150836020828501011115610e8e57600080fd5b9250929050565b60008060208385031215610ea857600080fd5b823567ffffffffffffffff811115610ebf57600080fd5b610ecb85828601610e4c565b90969095509350505050565b602081526000610eea6020830184610d58565b9392505050565b60008060008060408587031215610f0757600080fd5b843567ffffffffffffffff811115610f1e57600080fd5b610f2a87828801610e4c565b909550935050602085013567ffffffffffffffff811115610f4a57600080fd5b610f5687828801610e4c565b95989497509550505050565b6000806000806000806000806080898b031215610f7e57600080fd5b883567ffffffffffffffff811115610f9557600080fd5b610fa18b828c01610e4c565b909950975050602089013567ffffffffffffffff811115610fc157600080fd5b610fcd8b828c01610e4c565b909750955050604089013567ffffffffffffffff811115610fed57600080fd5b610ff98b828c01610e4c565b909550935050606089013567ffffffffffffffff81111561101957600080fd5b6110258b828c01610e4c565b999c989b5096995094979396929594505050565b634e487b7160e01b600052604160045260246000fd5b634e487b7160e01b600052603260045260246000fd5b600181811c9082168061107957607f821691505b6020821081036104d657634e487b7160e01b600052602260045260246000fd5b60008083546110a781611065565b6001821680156110be57600181146110d357611103565b60ff1983168652811515820286019350611103565b86600052602060002060005b838110156110fb578154888201526001909101906020016110df565b505081860193505b509195945050505050565b8183823760009101908152919050565b601f82111561116857806000526020600020601f840160051c810160208510156111455750805b601f840160051c820191505b818110156111655760008155600101611151565b50505b505050565b67ffffffffffffffff83111561118557611185611039565b611199836111938354611065565b8361111e565b6000601f8411600181146111cd57600085156111b55750838201355b600019600387901b1c1916600186901b178355611165565b600083815260209020601f19861690835b828110156111fe57868501358255602094850194600190920191016111de565b508682101561121b5760001960f88860031b161c19848701351681555b505060018560011b0183555050505050565b81835281816020850137506000828201602090810191909152601f909101601f19169091010190565b60608152600061126a60608301878961122d565b828103602084015261127d81868861122d565b9150508260408301529695505050505050565b815167ffffffffffffffff8111156112aa576112aa611039565b6112be816112b88454611065565b8461111e565b6020601f8211600181146112f257600083156112da5750848201515b600019600385901b1c1916600184901b178455611165565b600084815260208120601f198516915b828110156113225787850151825560209485019460019092019101611302565b50848210156113405786840151600019600387901b60f8161c191681555b50505050600190811b01905550565b60a08152600061136360a083018b8d61122d565b8281036020840152611376818a8c61122d565b9050828103604084015261138b81888a61122d565b905085606084015282810360808401526113a681858761122d565b9c9b50505050505050505050505056fea2646970667358221220559b10aad564689373aa875ef464af91f3839cf1378ab4440cc2367ffd79f61864736f6c634300081c0033",
  "linkReferences": {},
  "deployedLinkReferences": {}
}