{
  "_format": "hh-sol-artifact-1",
  "contractName": "SaccoPurchases",
  "sourceName": "contracts/SaccoPurchases.sol",
  "abi": [
    {
      "inputs": [],
      "stateMutability": "nonpayable",
      "type": "constructor"
    },
    {
      "anonymous": false,
      "inputs": [
        {
          "indexed": true,
          "internalType": "uint256",
          "name": "id",
          "type": "uint256"
        },
        {
          "indexed": true,
          "internalType": "address",
          "name": "sacco",
          "type": "address"
        },
        {
          "indexed": true,
          "internalType": "address",
          "name": "farmer",
          "type": "address"
        },
        {
          "indexed": false,
          "internalType": "string",
          "name": "listingId",
          "type": "string"
        },
        {
          "indexed": false,
          "internalType": "uint256",
          "name": "quantity",
          "type": "uint256"
        },
        {
          "indexed": false,
          "internalType": "uint256",
          "name": "totalPrice",
          "type": "uint256"
        }
      ],
      "name": "PurchaseRecorded",
      "type": "event"
    },
    {
      "inputs": [
        {
          "internalType": "uint256",
          "name": "id",
          "type": "uint256"
        }
      ],
      "name": "getPurchase",
      "outputs": [
        {
          "components": [
            {
              "internalType": "uint256",
              "name": "id",
              "type": "uint256"
            },
            {
              "internalType": "address",
              "name": "sacco",
              "type": "address"
            },
            {
              "internalType": "address",
              "name": "farmer",
              "type": "address"
            },
            {
              "internalType": "string",
              "name": "listingId",
              "type": "string"
            },
            {
              "internalType": "uint256",
              "name": "quantity",
              "type": "uint256"
            },
            {
              "internalType": "uint256",
              "name": "totalPrice",
              "type": "uint256"
            },
            {
              "internalType": "uint256",
              "name": "timestamp",
              "type": "uint256"
            }
          ],
          "internalType": "struct SaccoPurchases.Purchase",
          "name": "",
          "type": "tuple"
        }
      ],
      "stateMutability": "view",
      "type": "function"
    },
    {
      "inputs": [],
      "name": "getPurchaseCount",
      "outputs": [
        {
          "internalType": "uint256",
          "name": "",
          "type": "uint256"
        }
      ],
      "stateMutability": "view",
      "type": "function"
    },
    {
      "inputs": [],
      "name": "owner",
      "outputs": [
        {
          "internalType": "address",
          "name": "",
          "type": "address"
        }
      ],
      "stateMutability": "view",
      "type": "function"
    },
    {
      "inputs": [
        {
          "internalType": "uint256",
          "name": "",
          "type": "uint256"
        }
      ],
      "name": "purchases",
      "outputs": [
        {
          "internalType": "uint256",
          "name": "id",
          "type": "uint256"
        },
        {
          "internalType": "address",
          "name": "sacco",
          "type": "address"
        },
        {
          "internalType": "address",
          "name": "farmer",
          "type": "address"
        },
        {
          "internalType": "string",
          "name": "listingId",
          "type": "string"
        },
        {
          "internalType": "uint256",
          "name": "quantity",
          "type": "uint256"
        },
        {
          "internalType": "uint256",
          "name": "totalPrice",
          "type": "uint256"
        },
        {
          "internalType": "uint256",
          "name": "timestamp",
          "type": "uint256"
        }
      ],
      "stateMutability": "view",
      "type": "function"
    },
    {
      "inputs": [
        {
          "internalType": "address",
          "name": "_farmer",
          "type": "address"
        },
        {
          "internalType": "string",
          "name": "_listingId",
          "type": "string"
        },
        {
          "internalType": "uint256",
          "name": "_quantity",
          "type": "uint256"
        },
        {
          "internalType": "uint256",
          "name": "_totalPrice",
          "type": "uint256"
        }
      ],
      "name": "recordPurchase",
      "outputs": [
        {
          "internalType": "uint256",
          "name": "",
          "type": "uint256"
        }
      ],
      "stateMutability": "nonpayable",
      "type": "function"
    }
  ],
  "bytecode": "0x6080604052348015600f57600080fd5b50600080546001600160a01b0319163317905561089f806100316000396000f3fe608060405234801561001057600080fd5b50600436106100575760003560e01c80633742a9f71461005c5780637c97d57f146100855780638392fe31146100a65780638da5cb5b146100cc578063becd283f146100f7575b600080fd5b61006f61006a3660046104eb565b6100ff565b60405161007c919061054a565b60405180910390f35b6100986100933660046105bf565b6102a8565b60405190815260200161007c565b6100b96100b43660046104eb565b610407565b60405161007c9796959493929190610664565b6000546100df906001600160a01b031681565b6040516001600160a01b03909116815260200161007c565b600154610098565b6101516040518060e001604052806000815260200160006001600160a01b0316815260200160006001600160a01b03168152602001606081526020016000815260200160008152602001600081525090565b60015482106101925760405162461bcd60e51b81526020600482015260096024820152681b9bdd08199bdd5b9960ba1b604482015260640160405180910390fd5b600182815481106101a5576101a56106b5565b60009182526020918290206040805160e08101825260079093029091018054835260018101546001600160a01b0390811694840194909452600281015490931690820152600382018054919291606084019190610201906106cb565b80601f016020809104026020016040519081016040528092919081815260200182805461022d906106cb565b801561027a5780601f1061024f5761010080835404028352916020019161027a565b820191906000526020600020905b81548152906001019060200180831161025d57829003601f168201915b5050505050815260200160048201548152602001600582015481526020016006820154815250509050919050565b600180546040805160e081018252828152336020808301919091526001600160a01b038a16828401528251601f89018290048202810182019093528783526000949260608301918a908a9081908401838280828437600092018290525093855250505060208083018990526040808401899052426060948501528554600181810188559684529282902085516007909402019283559084015194820180546001600160a01b039687166001600160a01b0319918216179091559084015160028301805491909616911617909355810151909190600382019061038a908261076a565b506080820151816004015560a0820151816005015560c082015181600601555050866001600160a01b0316336001600160a01b0316827f305e29e0c517e2e536d8e048c040a28a379c9fdd43635194142756b73ef46d23898989896040516103f59493929190610829565b60405180910390a49695505050505050565b6001818154811061041757600080fd5b600091825260209091206007909102018054600182015460028301546003840180549395506001600160a01b03928316949290911692610456906106cb565b80601f0160208091040260200160405190810160405280929190818152602001828054610482906106cb565b80156104cf5780601f106104a4576101008083540402835291602001916104cf565b820191906000526020600020905b8154815290600101906020018083116104b257829003601f168201915b5050505050908060040154908060050154908060060154905087565b6000602082840312156104fd57600080fd5b5035919050565b6000815180845260005b8181101561052a5760208185018101518683018201520161050e565b506000602082860101526020601f19601f83011685010191505092915050565b602081528151602082015260018060a01b03602083015116604082015260018060a01b0360408301511660608201526000606083015160e06080840152610595610100840182610504565b9050608084015160a084015260a084015160c084015260c084015160e08401528091505092915050565b6000806000806000608086880312156105d757600080fd5b85356001600160a01b03811681146105ee57600080fd5b9450602086013567ffffffffffffffff81111561060a57600080fd5b8601601f8101881361061b57600080fd5b803567ffffffffffffffff81111561063257600080fd5b88602082840101111561064457600080fd5b959860209190910197509495604081013595606090910135945092505050565b8781526001600160a01b0387811660208301528616604082015260e06060820181905260009061069690830187610504565b60808301959095525060a081019290925260c090910152949350505050565b634e487b7160e01b600052603260045260246000fd5b600181811c908216806106df57607f821691505b6020821081036106ff57634e487b7160e01b600052602260045260246000fd5b50919050565b634e487b7160e01b600052604160045260246000fd5b601f82111561076557806000526020600020601f840160051c810160208510156107425750805b601f840160051c820191505b81811015610762576000815560010161074e565b50505b505050565b815167ffffffffffffffff81111561078457610784610705565b6107988161079284546106cb565b8461071b565b6020601f8211600181146107cc57600083156107b45750848201515b600019600385901b1c1916600184901b178455610762565b600084815260208120601f198516915b828110156107fc57878501518255602094850194600190920191016107dc565b508482101561081a5786840151600019600387901b60f8161c191681555b50505050600190811b01905550565b606081528360608201528385608083013760006080858301015260006080601f19601f87011683010190508360208301528260408301529594505050505056fea26469706673582212203971facea23c5db36ee6b0476408da1e28c44b003cfc0600d9cd973ece403b1d64736f6c634300081c0033",
  "linkReferences": {},
  "deployedLinkReferences": {}
}